:1000000000308A00292800000A108A100A1182078D
:100010003F343F3406345B344F3466346D347D34C2
:1000200007347F346F3425308400831300080319AC
:1000300026280230F800F701F70B1C28F80B1B28C4
:100040009730F700F70B2228800B19288A110A1223
:100050008F28840183131F30830583160317090833
:10006000C039890003131F129F1200300317880044
:100070008312870188018901FF300313A300003038
:1000800083168500860087008312A30083168800EC
:10009000850108308312850083168512831285122C
:1000A0008316051383120513831685138312851394
:1000B0000A30A0002008003C0318972820080420DC
:1000C000F800A400A4098316860183122408860080
:1000D0000A30A1002108003C0318952821080420BB
:1000E000F800A400A409831688018312240888005C
:1000F0000A30A2002208003C03189328220804209A
:10010000F800A400A4090030A3008316870183121D
:10011000240887000230A400FA30A5001328A40B9D
:100120008C28A2037A28A1036A28A0035A285828F9
:0201300063006A
:04400E00F22CFF3F52
:00000001FF
;PIC16F887
